:020000040800F2
:1000000080980020550200083F160008E1150008FE
:100010003D1600081B0A0008691F000800000000C8
:100020000000000000000000000000009D0100082A
:10003000E111000800000000F1010008651C000843
:100040006F0200086F0200086F0200086F020008CC
:100050006F0200086F020008891200086F02000892
:100060006F0200086F0200086F0200086F020008AC
:100070006F0200086F0200086F0200086F0200089C
:100080006F0200086F0200086F0200086F0200088C
:100090006F0200086F0200086F0200086F0200087C
:1000A0006F0200086F0200086F0200086F0200086C
:1000B0006F0200086F0200086F0200086F0200085C
:1000C0006F0200086F0200086F0200086F0200084C
:1000D0006F020008711D0008A51D00086F020008CE
:1000E000B51200086F0200086F0200086F020008D6
:1000F0006F0200086F0200086F0200086F0200081C
:100100006F0200086F0200086F0200086F0200080B
:10011000D51C0008311D00086F0200086F0200089E
:100120006F0200086F0200086F0200086F020008EB
:100130006F0200086F0200086F0200086F020008DB
:10014000C10B00086F0200086F0200086F02000870
:100150006F0200086F0200086F0200086F020008BB
:100160006F0200086F0200086F0200086F020008AB
:100170006F0200086F0200086F0200086F0200089B
:100180006F0200086F020008DFF80CD000F058FB87
:1001900000480047392D0008809800202A4B196834
:1001A0000868B0E8F04F80F30988BFF36F8F4FF015
:1001B000000080F3118870470000000006480068C6
:1001C000006880F3088862B661B6BFF34F8FBFF353
:1001D0006F8F00DF00BF00BF08ED00E0DFF80C000C
:1001E000016841F470010160704700BF88ED00E0D4
:1001F000EFF30980BFF36F8F134B1A681EF0100FD7
:1002000008BF20ED108A20E9F04F106008B44FF0CD
:10021000500080F31188BFF34F8FBFF36F8F03F04F
:1002200059FC4FF0000080F3118808BC1968086879
:10023000B0E8F04F1EF0100F08BFB0EC108A80F34A
:100240000988BFF36F8F7047B0000020EFF305807F
:10025000704700000648804706480047FEE7FEE773
:10026000FEE7FEE7FEE7FEE7FEE7FEE7FEE7FEE766
:10027000791C0008890100082DE9FE4F804681EABB
:100280000300C00F0C46009021F0004123F0004510
:10029000B8EB0200A94105D24046214690461C46D3
:1002A0000B46024623F00040104347D0270DC7F30A
:1002B0000A00C3F30A510290401A019040286BDAF9
:1002C000C3F3130040F4801B0098924620B1002332
:1002D000D2EB030A63EB0B0B01985946C0F14002C5
:1002E000504600F094F906460D4650465946019A8C
:1002F00000F0ACF910EB08006141002487EA1152CC
:1003000084EAE7731A4340D0009A62B3019A012A43
:100310004FEA075215DC001B61EB02014FF000426F
:1003200002EA0752CDE90042001C41F58011324635
:100330002B4600F0ACF903B0BDE8F08F40462146F3
:10034000F9E7001B61EB0201001C41F58013001866
:100350005B412018A2F5001747EB030140EAD57076
:10036000B6196D4111E06D084FEA360645EAC075D1
:100370004FEA0752001B61EB0201001C41F580119E
:1003800049084FEA30000019514132462B4603B06C
:10039000BDE8F04F00F06CB9009801224000002346
:1003A000D0EB020263EBE073009821464FEAE07461
:1003B000B8EB000061EB0401E9E783F000435BE781
:1003C00081F0004158E72DE9F04D81EA030404F083
:1003D000004B21F0004514464FF0000A23F0004185
:1003E00050EA050220D054EA01021DD0C5F30A5795
:1003F0000246C5F31303C1F31300C1F30A5640F4D8
:10040000801543F48013A7EB0608101BD64608F2AC
:10041000FD3873EB050002D308F1010801E09218E2
:100420005B41B8F1000F03DA00200146BDE8F08D12
:1004300000204FF48011064684460EE0171B73EB34
:10044000050705D3121B63EB050306434CEA010CB9
:1004500049084FEA300092185B4150EA0107EDD19C
:1004600052EA030012D082EA040083EA050108433D
:1004700005D0101BAB4106D20122002306E000226A
:100480004FF0004302E06FF0010253101AEB060038
:100490004CEB085110EB0A0041EB0B01BDE8F04DAD
:1004A00000F0E6B80EB5C10F80EAE0700844CA0754
:1004B000002140F233438DE80E000A460B4600F05F
:1004C000E6F803B000BD0EB540F2334102910021C1
:1004D000CDE900110A460B4600F0D9F803B000BD83
:1004E00070B5C1F30A5201F000450024C1F31301B5
:1004F00040F2FF3341F480119A4201DA002070BDCE
:1005000040F233439A42A2F2334203DC524200F0FB
:100510008DF800E090402C43F1D0404270BD0000C7
:1005200030B5041E71F1000404DB4FF0004440427A
:1005300064EB0101141E73F1000405DB1C464FF04F
:100540000043524263EB04038B4208BF824230BD3A
:1005500030B5041E71F1000404DB4FF0004440424A
:1005600064EB0101141E73F1000405DB1C464FF01F
:100570000043524263EB0403994208BF904230BDEE
:1005800030B50B46014600202022012409E021FA63
:1005900002F59D4205D303FA02F5491B04FA02F560
:1005A0002844151EA2F10102F1DC30BD2DE9F05FF7
:1005B0000546002092469B468846064681464024D2
:1005C0001BE0284641464746224600F02FF8534696
:1005D0005A46C01A914110D311461846224600F0DF
:1005E00016F82D1A67EB01084F462246012000211C
:1005F00000F00DF817EB00094E41201EA4F1010494
:10060000DFDC484631462A464346BDE8F09F202AB3
:1006100004DB203A00FA02F1002070479140C2F159
:10062000200320FA03F3194390407047202A04DB8B
:10063000203A21FA02F00021704721FA02F3D0405B
:10064000C2F120029140084319467047202A06DB78
:10065000CB17203A41FA02F043EAE07306E041FA90
:1006600002F3D040C2F1200291400843194670477E
:1006700010B5141E73F1000408DA401C41F10001AA
:1006800092185B411A4301D120F0010010BD2DE901
:10069000F04D92469B4611B1B1FA81F202E0B0FAF8
:1006A00080F220329046FFF7B2FF04460F4640EA40
:1006B0000A0041EA0B0153465A46084313D011463B
:1006C00053EA010019D0C8F140025046FFF7AEFFCF
:1006D00005460E46504659464246FFF798FF0843E6
:1006E00005D0012004E020463946BDE8F08D002009
:1006F000054346EAE0762C4337430A986305E40A4B
:10070000A0EB08000022FD0A44EA47540A3002D553
:1007100000200146E9E7010510196941DDE90845B6
:1007200000196941BDE8F04DA2E72DE9FE4F81EACD
:10073000030404F0004421F0004100944FF0000B4A
:1007400023F0004350EA01045ED052EA03045BD078
:10075000C3F30A54C1F30A552C44A4F2F3340194B0
:10076000A0FB0254C1F3130141F48011C3F313033E
:1007700043F4801301FB024400FB034E840A970AF2
:1007800044EA815447EA8357A4FB076802958D0A1F
:1007900005FB07854FEA932C04FB0C542705029DAB
:1007A0004FEA065847EA1637B5EB08056EEB070C1B
:1007B000870E920E47EA811742EA8312A7FB0201D5
:1007C000B6EB0B0164EB00042B0D43EA0C335E180F
:1007D00044EB1C50DA465146E7FB0201C5F3130413
:1007E0004FEA0B3343EA14534FEA0432019C43EAC5
:1007F0000603A4F10C040294009CCDE900B4FFF7B9
:1008000046FF03B0BDE8F08F00200146F9E7C1F3D1
:100810000A52C1F3130140F2FF3341F480119A42AE
:1008200002DA00200146704740F233439A42A2F2B6
:10083000334202DC5242FFF7F9BEFFF7E8BE000088
:10084000064C074D06E0E06840F0010394E807001D
:1008500098471034AC42F6D3FFF79AFCCC4200081C
:10086000EC4200087CB502F011FF032200210120B8
:1008700003F012FA204CE06010B120A001F0A4FBBC
:100880001D4803211430CDE900104FF400750023FA
:100890002A4626A1294803F08FFA012802D128A070
:1008A00001F092FB14480221001DCDE90010002345
:1008B0002A462BA12D4803F07FFA012802D12CA053
:1008C00001F082FB0C4805210830CDE9001000231F
:1008D0002A462EA1314803F06FFA012802D130A038
:1008E00001F072FB28A001F06FFB206803F036F8DE
:1008F000BDE87C4002F006BF2400002042696E6122
:10090000727953656D5F4765745F43616D657261B0
:100910005F48616E646C65B6FED6B5D0C5BAC5C118
:10092000BFB4B4BDA8B3C9B9A60D0A00534352451C
:10093000454E5F48435F5461736B000071180008B7
:10094000B4B4BDA853435245454E5F48435F54611C
:10095000736BC8CECEF1B3C9B9A6210D0A00000051
:1009600043414D4552415F5461736B001D0A0008BD
:10097000B4B4BDA843414D4552415F5461736BC847
:10098000CECEF1B3C9B9A6210D0A00004341525F92
:1009900043414E5F5461736B000000006111000819
:1009A000B4B4BDA84341525F434F4E54524C5F54C0
:1009B00061736BC8CECEF1B3C9B9A6210D0A000090
:1009C00010B54FF4407000F0CDFE00F00BFE00F0CB
:1009D000D1FC00F006F801F091FFBDE8104002F0F4
:1009E00007B870B54FF4E134204600F0FBFB4FF43C
:1009F00096450121284600F097FF0121284600F086
:100A00007DF84FF4807001F0C0FF681000F096FD93
:100A10002046BDE8704000F03BBDFEE70024DFF853
:100A20008490214F214D40F60F7800263878012818
:100A3000FCD11FA001F0C8FA2E7001F0C3FF641CA6
:100A4000A4B2A52801D04445F7D329784A1C2A70BE
:100A500009F80100444503D11BA001F0B5FA16E0E6
:100A6000002401F0AFFF2A781E2A04D8511C2970F7
:100A700009F8020000E02E700A28EBD12A78094913
:100A8000174801F07EFA297816A001F09DFA2E7021
:100A9000002419494FF4807008803E70322002F023
:100AA000C3FEC3E7500100204300002044000020A3
:100AB000BFAACABCBDD3CAD54F70656E4D56B5C46A
:100AC000D0C5CFA2210D0A004F70656E4D56BDD323
:100AD000CAD5CAFDBEDDCAA7B0DC0D0A0000000001
:100AE000001001404F70656E4D56CAFDBEDDB8F670
:100AF000CAFDA3BA25640000181402402DE9F04392
:100B000087B080460C460121022000F035FE01210D
:100B1000880400F03FFE00258DF81A5001208DF862
:100B20001B0002268DF819608DF818608702059762
:100B3000DFF8849005A9484600F05CFC8DF8186049
:100B4000B002059005A9484600F054FC07220B218D
:100B5000484600F08DFC07220A21484600F088FC38
:100B6000CDF80480ADF80A50F002012C03D0022C1D
:100B700008D064B10FE0ADF808004FF4C060ADF8E4
:100B80000C0008E0ADF80800ADF80C7003E0ADF81B
:100B90000850ADF80C50ADF810500C20ADF80E0018
:100BA000064C01A9204601F079F90121204601F007
:100BB00027F907B0BDE8F083000402400048004078
:100BC00010B50B4C0221204600F0F8F801280ED198
:100BD000084900220A604A600A728A72CA740A4688
:100BE0000021204600F0DCF903490120087010BD07
:100BF000006800408401002052000020F0B585B05C
:100C00000121022000F0B8FD01214FF0C06000F08A
:100C1000C1FD254F09220C21384600F029FC09228C
:100C20000D21384600F024FC00258DF812500124D7
:100C30008DF8134002268DF811608DF81060600366
:100C4000039003A9384600F0D5FB8DF8106020030F
:100C5000039003A9384600F0CDFB8DF807408DF8CE
:100C600006508DF808408DF809408DF80A508DF82F
:100C70000B508DF802408DF8034003208DF80400DE
:100C80008DF805400C20ADF80000084C6946204660
:100C900000F004F900F022FD01220221204600F0BC
:100CA000F3F805B0F0BD0000000402400068004009
:100CB000F0B5827A01219140304C226842F0010265
:100CC00022602E4D1C352A688A432A602B4A067BF7
:100CD0000C322B4B002E14D116688E4316604688BA
:100CE000C78846EA0746877A03EBC707C7F8406616
:100CF0000688878846EA0746877A03EBC707C7F85E
:100D00004466067B012E14D116680E431660428895
:100D1000068842EA0642867A03EBC606C6F84026F3
:100D2000C288868842EA0642867A03EBC603C3F885
:100D30004426124AC37A121D3BB113680B43136059
:100D40000E4A0389143223B106E013688B43136003
:100D5000F6E713688B4313600389012B02D11368F4
:100D60000B431360407B012802D1286808432860A8
:100D7000206820F001002060F0BD00000066004007
:100D8000006000401FB50020ADF808000E218DF86E
:100D90000A108DF80B0001218DF80C108DF80D1044
:100DA000ADF8000040F60411ADF80210ADF80400F3
:100DB000ADF806006846FFF77BFF1FBD0246002026
:100DC00053690B425DD0B1F5807F4AD016DC08290B
:100DD00037D009DC01292CD002292ED0042950D18A
:100DE000D068082100F0F6B910292ED0202930D083
:100DF000402946D11069102100F0ECB9B1F5004F3F
:100E00003BD00CDCB1F5007F2FD0B1F5806F30D036
:100E1000B1F5006F35D19069702100F0DBB9B1F503
:100E2000803F1AD0B1F5003F2BD15068102100F05F
:100E3000D1B99068134900F0CDB9D068032100F012
:100E4000C9B9D068102100F0C5B91069032100F0BC
:100E5000C1B91069082100F0BDB95068082100F03F
:100E6000B9B99069012100F0B5B99069022100F08B
:100E7000B1B99069042100F0ADB95068042100F0C7
:100E8000A9B9704701010100002A03D042690A4351
:100E90004261704742698A434261704710B500223F
:100EA000036823F002030360036843F00103036057
:100EB0004FF6FF7300E0521C4468E40701D19A42E8
:100EC000F9D14268D2073ED08A79012A3DD0026822
:100ED00022F080020260CA79012A3BD0026822F027
:100EE000400202600A7A012A39D0026822F0200208
:100EF00002604A7A012A37D0026822F010020260AA
:100F00008A7A012A35D0026822F008020260CA7A81
:100F1000012A33D0026822F0040202608A78CC7879
:100F2000920742EA04620C7942EA04424C79098849
:100F300042EA0452491E0A43C261016821F00101DC
:100F40000160002120E0002010BD026842F0800214
:100F50000260C0E7026842F040020260C2E7026835
:100F600042F020020260C4E7026842F01002026010
:100F7000C6E7026842F008020260C8E7026842F071
:100F800004020260CAE7491C4268D20701D09942B4
:100F9000F9D14068C00701D0002010BD012010BD6C
:100FA00010B500EB0113D3F8B04104F0040414723F
:100FB000002C2CD0D3F8B041E408546003F5D8736A
:100FC0001C6804F0020454725C6804F00F0494720C
:100FD0005C68240AD4749C68D4729C68240A1473D4
:100FE0009C68240C54739C68240E9473DC68D4733E
:100FF000DC68240A1474DC68240C5474DB681B0E4F
:10100000937449B1016941F02001016110BDD3F829
:10101000B041640D1460D1E7C16841F02001C160A6
:1010200010BD30B50246002093685B010AD4906879
:10103000000101D5012005E09068C00001D5022023
:1010400000E0042004283BD002EB0012D2F88031EB
:1010500003F00103C2F880310B7A93B3D2F88041D8
:101060004D681C434B7A43EAC5031C43C2F88041D8
:101070008B7A03F00F038B7202F5C072536823F072
:101080000F03536053688C7A23435360CB7A8C7B75
:101090000D7B43EA04634C7B240444EA0524234388
:1010A0009360CB7B8C7C43EA04634C7C097C2404F6
:1010B00044EA01210B43D360116841F00101116042
:1010C00030BDFFE7D2F880314C7A23430C8843EAE5
:1010D0004453C2F88031CBE70022002904D0012913
:1010E00006D002290BD107E082681848024006E0CA
:1010F00082681748024002E082681648024016499A
:10110000501A8A4218D007DC92B16FF08060101834
:1011100010D0022809D113E0B0F5007F12D00F499A
:1011200040180BD0B0F5003F0ED00020C0B2704781
:101130000220FBE70020F9E70020F7E70020F5E7B1
:101140000120F3E70120F1E70120EFE703000004AD
:101150000003000800000310000100080001FFF771
:1011600002F068FE0C4908610E4D0C4FDFF830802C
:101170004024AE1E08480A21103002F091FBF87896
:1011800038B198F8000020B13480044802F0EAF841
:10119000F0E72C80F9E70000240000204A0000203E
:1011A000470000201A14024070B5FF22FF23084DAB
:1011B00005F5807605E010F8014B54402A5D5A4051
:1011C000335D491E89B2F6D243EA022070BD0000A9
:1011D000CC400008024600200A4200D0012070479F
:1011E00070470000F0B587B006460121084600F0C0
:1011F000C3FA0121102000F0DBFA00248DF81A4018
:1012000001208DF81B0002258DF819508DF818501B
:10121000410205911A4F05A9384600F0EBF88DF808
:1012200018506802059005A9384600F0E3F8072237
:101230000A21384600F01CF907220921384600F03F
:1012400017F90196ADF80840ADF80A40ADF80C402A
:10125000ADF810400C20ADF80E000A4C01A9204654
:1012600000F01CFE00F002FA012240F22551204657
:1012700000F0F9FD0121204600F0C2FD07B0F0BDED
:10128000000002400010014010B5012000F02EF8CF
:1012900000280AD00549012008700549000208808D
:1012A000BDE81040012000F01BB810BD4300002035
:1012B0001A14024010B54FF40054204600F016F8FE
:1012C000002809D00548016881F0400101602046EE
:1012D000BDE8104000F004B810BD00001414024036
:1012E0000149086070470000143C0140014600209D
:1012F000024A12680A4200D001207047143C0140A3
:1013000030B51B4A83790168002B2AD013688B43C0
:101310001360111D0B680468A3430B60017911442D
:101320000B68046823430B60114C08342168036880
:1013300099432160231D19680568A9431960417903
:10134000102905D011440A68006802430A6030BDC4
:10135000216802681143216019680068014319601F
:1013600030BD0079104402688A43026030BD00003D
:10137000003C01402DE9FF410121052000F0FCF96E
:101380000121880300F014FA00F05AF901240294B4
:1013900000258DF80C508DF80F5002A9134800F06D
:1013A00029F80021084600F02BFB00948DF804502A
:1013B00008268DF805608DF806406846FFF7A0FF07
:1013C0006703029702A90A4800F014F80D210220D1
:1013D00000F016FB00978DF804508DF805608DF82D
:1013E00006406846FFF78CFFBDE8FF810000024021
:1013F000000802402DE9F041002201274FF0030CC4
:1014000007FA02F50B682B40AB422CD1066853005B
:101410000CFA03F4A64306600E79D0F800809E40D3
:1014200046EA080606600E79012E01D0022E12D17E
:101430008668A64386604E79D0F808809E4046EACA
:10144000080686604668AE43466045688E799640D9
:10145000B6B235434560C568A543C560CC799C40AC
:10146000C3681C43C460521C102AC9D3BDE8F08174
:1014700010B54B07DB0E9A40C90800EB8100016AEA
:101480000F249C40A1430162016A1143016210BD17
:10149000F0B587B0064601210C2000F06DF901215E
:1014A000080500F077F900248DF81A4001208DF826
:1014B0001B0002258DF819508DF818500103059175
:1014C0001B4F05A93846FFF795FF8DF818500420EB
:1014D0000590184D05A92846FFF78CFF0822022128
:1014E0002846FFF7C5FF08220C213846FFF7C0FF4A
:1014F0000196ADF80840ADF80A40ADF80C40ADF8E3
:1015000010400C20ADF80E000B4C01A9204600F055
:10151000C5FC00F0ABF8012240F22551204600F056
:10152000A2FC0121204600F06BFC07B0F0BD0000DA
:1015300000080240000C024000500040F0B587B0A7
:1015400006460121042000F017F90121C80400F02B
:1015500021F900248DF81A4001208DF81B00022586
:101560008DF819508DF81850810205911A4F05A970
:101570003846FFF73FFF8DF81850A802059005A9DF
:101580003846FFF737FF08220B213846FFF770FF78
:1015900008220A213846FFF76BFF0196ADF8084094
:1015A000ADF80A40ADF80C40ADF810400C20ADF895
:1015B0000E000A4C01A9204600F070FC00F056F81D
:1015C000012240F22551204600F04DFC0121204629
:1015D00000F016FC07B0F0BD00080240004C0040CF
:1015E000FEE700002DE9FC410121202000F0C4F8B5
:1015F0004024009401208DF8040000218DF806108D
:101600008DF807008DF805100B4F69463846FFF737
:10161000F1FE8026009669463846FFF7EBFEA500EE
:10162000009569463846FFF7E5FE03481830048008
:1016300006800580BDE8FC8100140240FEE770478B
:1016400008B506208DF800008DF8010000208DF807
:10165000020001208DF80300684600F04FF82820B2
:101660008DF80000684600F049F808BD38B525201F
:101670008DF8000007208DF8010000248DF802404D
:1016800001258DF80350684600F038F826208DF8C3
:10169000000008208DF801008DF802408DF80350FD
:1016A000684600F02BF834208DF800000A208DF8F1
:1016B00001008DF802408DF80350684600F01EF8D6
:1016C00035208DF800000B208DF801008DF80240C8
:1016D0008DF80350684600F011F838BD08B5402079
:1016E0008DF8000001208DF8010003218DF8021013
:1016F0008DF80300684600F001F808BD30B50F23EF
:10170000C27801250178002A1FD0154A126802F418
:10171000E062C2F5E062C2F30722C2F10404D340E2
:101720004278A24084781C401443220101F1E02158
:1017300081F80024007800F01F018D4040098000EE
:1017400000F1E020C0F8005130BD01F01F008540DD
:101750004809800000F1E020C0F8805130BD000051
:101760000CED00E0024908430249086070470000A0
:101770000000FA050CED00E0054A002903D01168CD
:101780000143116070471168814311607047000088
:1017900030380240054A002903D011680143116026
:1017A0007047116881431160704700004038024063
:1017B000054A002903D01168014311607047116880
:1017C00081431160704700004438024070B5244BDB
:1017D000196801F00C01234C00291ED0224E042967
:1017E0001DD008291DD00460196801F0F001090915
:1017F0001E4A545C0168E14041601C6804F4E054F6
:10180000A40A145D21FA04F484601B6803F46043A5
:101810005B0BD25CD140C16070BD0460E4E7066040
:10182000E2E70F4A121F1168C1F38055116801F0F9
:101830003F0135B1B6FBF1F11468C4F3881461437C
:1018400005E0B4FBF1F11468C4F388146143126835
:10185000C2F30142521C5200B1FBF2F10160C3E736
:10186000083802400024F40040787D011400002074
:10187000002480261C4FDFF87480DFF874902EE07F
:101880001CA000F0A1FB204D2878801EC1B21F488B
:1018900001F010F91BA000F097FB2C7089F80040B4
:1018A0000A2001F0C1FF3E8098F80000012813D102
:1018B00017A000F089FB1A4D2878801EC1B2194884
:1018C00001F0F8F80FA000F07FFB2C7088F80040C2
:1018D0000A2001F0A9FF3E80322001F0A5FF99F80F
:1018E00000000128E0D1CBE718140240400000209E
:1018F0003D000020CAD5B5BDB4AEBFDAC6C1D6B86A
:10190000C1EEA3BA0D0A00003E0000201401002021
:10191000CAD5B5BD4843D6B8C1EEA3BA0D0A00007A
:1019200041000020320100202DE9F04186B0074639
:101930000C4601210846FFF71FFF01214804FFF76D
:1019400029FF00258DF8165001208DF8170002267A
:101950008DF815608DF8146004200490DFF89880ED
:1019600004A94046FFF746FD8DF814600820049056
:1019700004A94046FFF73EFD072203214046FFF73A
:1019800077FD072202214046FFF772FD0097ADF870
:101990000650F002012C03D0022C08D074B111E0E3
:1019A000ADF804004FF4C060ADF808000AE0ADF8EF
:1019B00004004FF48060ADF8080003E0ADF8045077
:1019C000ADF80850ADF80C500C20ADF80A000B4CE7
:1019D0006946204600F062FAFFF748FE012240F215
:1019E0002551204600F03FFA0121204600F008FA78
:1019F00006B0BDE8F0810000000002400044004055
:101A000010B58A07120F0F23934021F003040649F3
:101A1000214401F608010C689C430C600B6890405F
:101A200003430B6010BD00000030014010B50E4CA8
:101A300020706170100AA070E270180A2071637142
:101A4000052907D100201BB1FF212171607101E040
:101A50002071607106210448FFF7A6FB010AA171FD
:101A6000E071014810BD0000530000202DE9F0474F
:101A700005468946484600F055FF0446A7B2260CA5
:101A80004FF6FF7000EA4508012000EB450085B2E3
:101A9000494639A000F098FA21463AA000F094FA9D
:101AA0003B46424606210120FFF7C0FF044638A00E
:101AB000217800F089FA617836A000F085FAA178E3
:101AC00034A000F081FAE17832A000F07DFA2179AB
:101AD00030A000F079FA61792EA000F075FAA179B2
:101AE0002CA000F071FAE1792CA000F06DFA2D4FD6
:101AF00008222146384600F044FADFF8AC8008227C
:101B00002146404600F03DFA33462A460621012090
:101B1000FFF78CFF04461EA0217800F055FA61788B
:101B20001CA000F051FAA1781AA000F04DFAE1785B
:101B300018A000F049FA217916A000F045FA617961
:101B400014A000F041FAA17912A000F03DFAE17969
:101B500012A000F039FA08222146384600F011FAA6
:101B600008222146404600F00CFABDE8F04742F258
:101B7000107000F00ABF0000646174613A25237898
:101B80000D0A0000446174613A2523780D0A0000B3
:101B90007374723A25237820000000002523780D05
:101BA0000A0D0A0000480040004400400CB5002225
:101BB000019200922749086840F4803008604FF491
:101BC000A043086800F4003000900198401C019088
:101BD000009810B901989842F3D10868800302D5A3
:101BE0000120009000E000920098012831D11948AE
:101BF0004030026842F0805202601748026842F4A6
:101C0000404202601348083002680260026842F4F1
:101C100000420260026842F4A0520260021F0F4BB1
:101C200013600A6842F080720A600A689201FCD56B
:101C30000B4A40F205711160016821F00301016057
:101C4000016841F0020101600168C1F381010229CC
:101C5000FAD10CBD00380240007000401954400712
:101C6000003C024010B502F0D7F8012803D0BDE8CF
:101C7000104001F0FBBF10BD10B51248016841F4DF
:101C8000700101601048016841F0010101600E4AD5
:101C900000210832116002680C4B1A400260031DDB
:101CA0000B4A1A60026822F48022026006480C3057
:101CB0000160FFF77BFF03494FF000608039086047
:101CC00010BD000088ED00E000380240FFFFF6FE86
:101CD0001030002410B5052000F057FE104C40F2E3
:101CE0002551204600F09FF8002813D0204600F030
:101CF00033F9C1B20B4A10791E2801D2D37853B1FF
:101D0000002010715079814204D107498020088059
:101D10000120D07010BD431C1371044B1954F1E71E
:101D2000004C00403D0000201A1402403201002007
:101D300010B5052000F029FE0A4C40F2255120463E
:101D400000F071F800280BD0204600F005F9C1B270
:101D5000054800F00AF90548016881F0800101603A
:101D600010BD00000050004000100140141402405B
:101D700010B50A4C40F22551204600F054F80028D6
:101D80000AD0204600F0E8F8C1B2054801702046AC
:101D9000BDE8104000F0E4B810BD000000100140A4
:101DA0003C00002010B5052000F0EFFD104C40F283
:101DB0002551204600F037F8002813D0204600F0C7
:101DC000CBF8C1B20B4A50781E2801D2137853B118
:101DD000002050709078814204D10749802008800B
:101DE0000120107010BD431C5370044B1954F1E7CF
:101DF000004400403D0000201A140240140100205D
:101E0000002904D0818941F4005181817047818982
:101E100021F40051818170470246002012880A4255
:101E200000D00120704770B5002440F66A12C1F35B
:101E3000421301F01F05012606FA05F2012B0CD012
:101E4000022B0DD0838A1340090A8E40008830404F
:101E50000BB100B10124204670BD83891340F3E724
:101E6000038A1340F0E710B540F66A13C1F342133A
:101E700001F01F040121A140012B07D0022B07D044
:101E800014303AB102680A43026010BD0C30F8E722
:101E90001030F6E702688A43026010BD7FB5044641
:101EA0000D46208A20F44051E88808432082A0890A
:101EB00041F20C618843A9882A8911436A89024347
:101EC0001143A181A08A20F44071A8890843A0820F
:101ED0006846FFF77BFC1E48844202D01D488442BE
:101EE00001D1039800E00298A189090408D500EB0C
:101EF000C00101EB001029684900B0FBF1F007E0D8
:101F000000EBC00101EB001029688900B0FBF1F083
:101F10006422B0FBF2F109010B096FF018056B4365
:101F200000EB8300A3891D044FF0320307D503EBB8
:101F3000C000B0FBF2F000F00700084306E003EB3E
:101F40000010B0FBF2F000F00F00084320817FBDCD
:101F500000100140001401408088C0F30800704761
:101F6000C1F3080181807047FEE710B504462046A2
:101F7000FFF7F6FF80212046FFF74EFF0028F9D03B
:101F800010BD2DE9F04107460D461646002438469F
:101F9000295DFFF7EAFF641CB442F8D3BDE8F08185
:101FA00070B506460D4600243046295DFFF7DDFF7B
:101FB000641C285D0028F7D140213046FFF72CFF34
:101FC0000028F9D070BD00000FB4054B10B503A96F
:101FD000044A029800F0DAF810BC5DF814FB000027
:101FE000A12900081001002002E008C8121F08C142
:101FF000002AFAD170477047002001E001C1121F8A
:10200000002AFBD1704700002DE9FF5F82B000215C
:10201000DDE90430020DDDF840B0034318D044F68A
:102020001050A2F2FF3242431514119801281FD01C
:10203000A5EB0B00401C5FEA000A4FF000064E4F74
:10204000DFF83891B046504615D5CAF1000413E0C8
:10205000119801244AA3012801D16FEA0B010298CB
:10206000119AC0E90031C0E9024206B0BDE8F09F14
:10207000CBF10000DFE704460021404A491842EB5B
:102080000450CDE9001012E0E00707D032463B468D
:1020900040464946FEF749FB8046894632463B4664
:1020A00010461946FEF741FB06460F466410002C09
:1020B000EAD1DDE90401DDE90023BAF1000F06DA17
:1020C000FEF733FB42464B46FEF72FFB05E0FEF7DB
:1020D0007AF942464B46FEF776F904460E46002250
:1020E000284BFEF735FA03D84FF0FF30014607E0E2
:1020F0000022254B20463146FEF7BEF8FEF787FB4F
:10210000102409E0002C0ADB0A220023FEF74EFA15
:10211000039B30321A55641E50EA0102F2D1641C4E
:10212000039AC4F111031444119A012A03D0012225
:1021300008430DD10AE0084304D000204FF0110BF2
:10214000119072E7A3EB0B056D1E0DE05B4504DDFE
:102150004FF0000205F1010504E003DA4FF0000240
:10216000A5F10105002AECD002981199C0E90231CD
:10217000C0E9004579E70000000014400000F03F8E
:10218000300000000000F0430000E03F2DE9FF4F69
:1021900095B09B468946064600250FE2252877D153
:1021A00000242746F84A0121059400E0044316F86C
:1021B000013F203B01FA03F01042F7D130782A2882
:1021C00011D06FF02F033078A0F13002092A16D811
:1021D000059A44F0020402EB820203EB420210442F
:1021E000761C0590EFE759F8042B0592002A03DAD4
:1021F000504244F40054059044F00204761C3078B8
:102200002E2816D116F8010F44F004042A280DD008
:102210006FF02F023078A0F13003092B09D807EBBB
:10222000870302EB4303C718761CF3E759F8047BD6
:10223000761C30786C280FD006DC4C2817D0682824
:102240000DD06A2814D104E0742810D07A280FD158
:102250000DE044F400140AE044F4801401E044F476
:1022600040147278824202D104F58014761C761CE8
:10227000307866280BD013DC582877D009DC00288A
:1022800075D04528F6D04628F4D047281AD19DE1CC
:1022900018E0632835D0642879D0652812D195E1FB
:1022A000702873D008DC6728F1D069286FD06E28B9
:1022B0000DD06F2806D1B5E073282CD0752875D0C5
:1022C000782874D05A46179990476D1C75E1C4F36D
:1022D0000250022809D003280DD0D9F80010042894
:1022E0000DD00D6009F1040967E1D9F80010EA1773
:1022F000C1E90052F6E7D9F800100D80F2E70D7041
:10230000F0E719F8041B8DF8001000208DF801008B
:10231000EA46012003E059F804AB4FF0FF306107B3
:102320004FF0000102D40DE008F101018846B942E6
:102330000FDA8045F8DB1AF808100029F4D108E01C
:1023400008F1010188468142FADB1AF808100029D9
:10235000F6D105985B46A0EB080721463846179A48
:1023600000F094FA284400EB080507E04DE029E16D
:102370000DE01AF8010B5A4617999047B8F1010879
:10238000F7D25B4621463846179A13E142E00A220B
:102390000092C4F302524FF0000A022A08D059F802
:1023A00004CB032A4FEAEC710AD00DE029E02AE0C1
:1023B00009F1070121F00702F2E802C1914609E0A4
:1023C0000FFA8CFC4FEAEC71042A03D14FFA8CFC13
:1023D0004FEAEC71002907DA0A460021DCF1000C13
:1023E00061EB02012D2202E0220504D52B228DF89B
:1023F0000420012203E0E20701D02022F7E7904603
:1024000059E00A2102E010220DE010214FF0000AED
:1024100000910BE010224FF0000A44F0040408275A
:10242000009203E008224FF0000A0092C4F3025227
:10243000022A05D059F804CB0021032A08D009E06C
:1024400009F1070121F00702F2E802C1914605E017
:102450001FFA8CFC042A01D10CF0FF0C4FF000088D
:10246000220728D5702806D0009B83F0100353EA7A
:102470000A0305D00EE040228DF80420012208E076
:102480005CEA010206D030228DF804208DF80500A8
:1024900002229046009B83F0080353EA0A030AD104
:1024A0005CEA010201D1620705D530228DF80420D3
:1024B0004FF001087F1E582804D034A003900EA8C6
:1024C00002900DE036A0F9E753466046009AFEF709
:1024D0006DF884460398825C0298401E0290027058
:1024E0005CEA0100F0D1029806A9081A00F1200A5E
:1024F000600702D524F4803400E00127574502DD4F
:10250000A7EB0A0000E0002000EB0A01009005980C
:102510004144401A0590E00306D45B462146179AD1
:10252000059800F0B3F90544002706E001A85A46D3
:10253000C05D179990476D1C7F1C4745F6DBE00393
:102540000CD55B462146179A059800F09FF9054483
:1025500004E030205A46179990476D1C0099481E98
:1025600000900029F5DC08E0029802995A460078AC
:10257000491C0291179990476D1CBAF10001AAF10C
:10258000010AF1DC65E10000092801003031323335
:10259000343536373839616263646566000000009F
:1025A0003031323334353637383941424344454689
:1025B0000000000000F058F90544761C307800282F
:1025C0007FF4ECAD19B02846BDE8F08F620700D467
:1025D000062709F1070222F0070CFCE80223E14676
:1025E00003F000485FEA080C02D00FF2702C0DE0F7
:1025F0005FEA045C02D50FF2682C07E05FEAC47C56
:1026000002D00FF2602C01E0AFF2700C4FF0FF38F7
:1026100023F00043CDF850C065280CD006DC4528D7
:1026200009D046281DD047283DD13DE0662818D066
:1026300067287ED138E00021112F01DB112000E056
:10264000781CCDE9000106A90EA8FFF7DDFCDDE945
:102650000F010E9A03910021009207F1010A0491E3
:102660004DE04FF000400097CDE9011006A90EA8FB
:10267000FFF7CAFCDDE90F0203920E9B11990022BD
:10268000DDF80CA00093049211B9791C00EB010A4B
:10269000B7EB0A0004D4C0F1FF3007F1010A04903F
:1026A000AAEB0700019044E0012F00DA0127002186
:1026B000112F01DD112000E03846CDE9000106A907
:1026C0000EA8FFF7A1FCDDE90F010E9A039100218E
:1026D00004910092BA4621070CD40399514500DABF
:1026E0008A46BAF1010F05DD009AAAF10101515C99
:1026F000302908D0B84202DA10F1040F06DA0121BD
:10270000CDE9011015E0AAF10101E9E7002805DC97
:10271000049901440491AAEB000102E0411C5145D7
:1027200000DD8A460499401A401C01904FF0004099
:102730000290200704D40198504501DBCDF80480B5
:1027400000208DF84F0002980DF14F07B0F1004FB7
:1027500025D02B200E9002984FF0020800280CDAAA
:10276000404202902D200E9007E00A210298FDF7CA
:1027700007FF3031029007F8011DB8F10001A8F100
:102780000108F2DC02980028EFD1791E0E9808703B
:10279000307800F0200040F0450007F8020D12A844
:1027A000C01B00F107081498007800B1012000EB6D
:1027B0000A01019801EBE07105984144401A401E5E
:1027C0000590E00306D45B462146179A059800F071
:1027D0005DF805441498007818B15A461799904747
:1027E0006D1CE00324D55B462146179A059800F03E
:1027F0004DF805441CE00498002807DBDDE90301DF
:10280000884203DD0098405C179901E01799302059
:102810005A469047049805F10105401C0490019820
:10282000401E019004D12E205A46179990476D1CE6
:10283000BAF10001AAF1010ADDDC05E017F8010B8D
:102840005A46179990476D1CB8F10001A8F101088C
:10285000F4DC5B462146179A0598ABE62D00000094
:102860002B000000200000002DE9F0410446002567
:102870001E461746880404D405E039462020B04798
:102880006D1C641EF9D52846BDE8F0812DE9F041A4
:10289000044600251E469046C80301D5302700E0B7
:1028A0002027880404D505E041463846B0476D1C12
:1028B000641EF9D52846BDE8F081000010B50E4928
:1028C00000230A1F0C785078432C05D041240C704B
:1028D0000B71801C507001E0801E50705078C82829
:1028E00002D9C820507003E010B95370422008701C
:1028F0005078C87010BD00004A00002010B5FEF7E7
:102900007DF9FEF73FFA0649422008700020487022
:102910008870C8700871091F4870488010BD000099
:102920004A00002000220023002807DA4FF00103AC
:102930006FEA000000F1010000B203E002D14FF0A5
:1029400000007047014604E04FEA510102F1010224
:10295000D2B20029F8D1A2F10102D1B24FF00102A6
:1029600002FA01F220EA020000B2C1F1170200FAF5
:1029700002F001F17F0140EAC150012B02D020F0AA
:102980000040704740F000407047002204E0002102
:10299000491CA829FCD3521C8242F8D3704700007E
:1029A00070B50446064DE1B22846FFF7D9FA8021FA
:1029B0002846FFF731FA0028F9D0204670BD000004
:1029C0000010014070B50024084E40F6FF7501E08C
:1029D000641CA4B220213046FFF71EFA08B9AC42AD
:1029E000F6D33046FFF7B8FAC0B270BD00480040D9
:1029F0002DE9F0412B4C4FF4807525802B4E0E2293
:102A000029493046FFF7BDFA47F230573846FFF7FD
:102A1000BCFF25490E220E313046FFF7B2FA384688
:102A2000FFF7B3FF20490E221C313046FFF7A9FA09
:102A30003846FFF7AAFF1C490E222A313046FFF71D
:102A4000A0FA3846FFF7A1FF17490E223831304669
:102A5000FFF797FA3846FFF798FF13490E224631E1
:102A60003046FFF78EFAA61E3580DFF844804046D8
:102A7000FFF78BFF4046FFF788FF4046FFF785FFD3
:102A80003846FFF782FF802525804046FFF77DFF0F
:102A90004046FFF77AFF4046FFF777FF3580BDE8F5
:102AA000F08100001A1402405B000020005000403A
:102AB00018E4030030B589B00446615C45A292E891
:102AC0002900D268CDE906350892059045A292E822
:102AD0002900D268CDE902350492019020785A2865
:102AE00009D03D2805D143A0FFF76EFA204600F03B
:102AF00093FC09B030BD002935D0012939D0022915
:102B00003DD0032941D0042945D0414A41485029AC
:102B100047D00F2951D040A14548FFF741FA454819
:102B20000078FDF7D0FC9FED441B53EC112BFDF713
:102B30004AFC41EC100B42A053EC102BFFF744FA77
:102B40004548B0F90000FDF7ADFC9FED441B53EC88
:102B5000112BFDF738FC41EC100B42A053EC102B6D
:102B6000FFF732FAC5E7FFF7A9FE44A0FFF72CFAFA
:102B7000D5E700F09FF843A0FFF726FACFE700F073
:102B800021FD42A0FFF720FAC9E700F0A9FB41A010
:102B9000FFF71AFAC3E700F003FD40A0FFF714FAAD
:102BA000BDE7116881F4807111600E2205A9FFF75D
:102BB000E8F93CA0FFF708FAB1E7116881F48071E9
:102BC00011600E2201A9FFF7DCF938A0FFF7FCF92C
:102BD000A5E70000FFFEFDFC01100401000000005D
:102BE00000FB0000FFFEFDFC0110040100010000DD
:102BF00000FB00006D6F64627573B7A2CBCDBBFAAA
:102C0000D0B5B1DBBFD8D6C6D0C5CFA20D0A000063
:102C10001414024000500040D1A1D4F1B4EDCEF321
:102C2000A3A1C7EBD6D8D0C2D1A1D4F1090A000024
:102C30000010014047000020000000000000244078
:102C4000B5B1C7B0CBD9B6C8CEAAA3BA252E3266C5
:102C5000204B4D2F730D0A004800002033333333CF
:102C600033334640B5B1C7B0D7AABDC7CEAAA3BAC1
:102C7000252E3166A1E30D0A00000000C7B0BDF8A3
:102C80000D0A0000D7F3D7AA0D0A0000BAF3CDCB86
:102C90000D0A0000D3D2D7AA0D0A0000C9B2B3B5FD
:102CA0000D0A0000D7A5BDF40D0A0000CBC9BFAACC
:102CB0000D0A000010B5184CB4F90200FDF7F2FB44
:102CC0009FED161B53EC112BFDF777FBFDF708FC6E
:102CD00000B260801349884201DA618015E0FDF797
:102CE000E1FB9FED111B53EC112BFDF731FC0CD2D6
:102CF000B4F90200FDF7D6FB9FED0D1B53EC112B31
:102D0000FDF70EFC01D20020608003496088091D98
:102D10004870000A887010BD46000020666666662E
:102D200066A6604050FBFFFF98999999999940C019
:102D300033333333333346401CB5FDF741FE4FF494
:102D40008070FFF722FE0D49402008800CA0FFF79D
:102D50003BF919A0FFF738F918480121CDE9001017
:102D60000023802216A11A4801F026F8012802D07B
:102D70004FF0FF301CBD00F05BFEFEE71A1402406E
:102D8000D5E2CAC7D2BBB8F653544D3332463430BD
:102D900037BFAAB7A2B0E52D4672656552544F53AE
:102DA0002DCEDEC8CBB3B5CFEEC4BFD7E9B3CCD000
:102DB000F2210D0A0A0000000D0A00002400002084
:102DC0004170705461736B437265617465000000FB
:102DD000650800082DE9F04104460F46174EF568D6
:102DE0003068001D00F00EFC38B9306890F82C10E7
:102DF00001208840316981433161601C07D137B1BE
:102E00003168BDE8F041091D0D4800F033BC2C4489
:102E100030684460AC4206D23168B06B091DBDE831
:102E2000F04100F00FBC3168706B091D00F00AFC26
:102E3000B06A844200D2B462BDE8F081B0000020E4
:102E40006804002070B5044600F020FC1C4DA86802
:102E5000401CA860286810B1686938B10CE02C608B
:102E6000A868012808D100F009F905E02868E16A9E
:102E7000C06A884200D82C60686A401C6862E06AB8
:102E800001212A698140114329610E4900EB80002C
:102E900001EB8000211D00F0EDFB00F033FC6869C0
:102EA00000280CD02868E16AC06A884207D2064927
:102EB0004FF080500860BFF34F8FBFF36F8F70BD2E
:102EC000B00000209801002004ED00E070B5124E23
:102ED000124D1CE000F0F6FD306820B1002401F036
:102EE0007BF8A4B901E00124F9E700F0CFFBF0681A
:102EF000C468201D00F086FBA868401EA8606868B2
:102F0000401E686000F0FEFB204600F009F868688B
:102F10000028DFD170BD000054040020B000002064
:102F200010B50446206B00F021FC2046BDE810409F
:102F300000F01CBC4FF410410F48420706D0C01DE2
:102F400020F007000C49411AC1F510410B4A1060EE
:102F5000002353600144083921F00701103A116041
:102F60004B600B600B1A43600160406890605060DA
:102F70004FF00040D06070477C0400200801002022
:102F8000074E4FF08054074DFFF7A0FF306801282F
:102F9000FAD92C60BFF34F8FBFF36F8FF4E70000B7
:102FA0009801002004ED00E010B5029C002909D032
:102FB0002260E06321640121204600F0A3FE00208E
:102FC000A06410BD2460F4E72DE9F047DDE908585E
:102FD0000A9C81460E469A46206B521E00EB8200E8
:102FE00020F00707780705D040F22B3218A11FA068
:102FF000FEF7EAFF00202218315C82F83410315CC1
:1030000011B1401C1028F6D3002684F84360202D0F
:1030100000D31F25E562201D00F011FB04F118000C
:1030200000F00DFB2461C5F12000A06164626664BC
:1030300084F8486052464946384600F03FF920601F
:10304000B8F1000F01D0C8F80040BDE8F0870000DB
:103050002E2E5C2E2E5C4672656552544F535C7367
:1030600072635C7461736B732E6300004572726FE0
:10307000723A25732C25640D0A00000070B50024F7
:10308000114D04EB840005EB800000F0CDFA641CC8
:10309000202CF6D30D4800F0C7FA0C48143000F08D
:1030A000C3FA0A48283000F0BFFA08483C3000F064
:1030B000BBFA0648503000F0B7FA054803494163AF
:1030C0001431816370BD00009801002018040020B5
:1030D000B000002030B5134900E011460A68824272
:1030E000FBD34B685C18844203D1406818444860A5
:1030F00008460D6844682318AB420DD1094B103BBC
:103100001B689A4206D05268224442600A681268DC
:10311000026002E0036000E00260814200D00860CB
:1031200030BD0000080100200748416B09680029F4
:1031300005D0416BC968C9684968816270474FF022
:10314000FF31816270470000B000002008484068ED
:10315000401C05D040F20F1206A111A0FEF734FF6B
:10316000502080F31188BFF34F8FBFF36F8FFEE7BE
:10317000EC0000202E2E5C2E2E5C467265655254AB
:103180004F535C706F72745C525644535C41524DA5
:103190005F434D34465C706F72742E630000000014
:1031A0004572726F723A25732C25640D0A00000077
:1031B0002DE9F0410546002600F084FC304F3868C8
:1031C00008B9FFF7B7FEF86805424BD175B108356D
:1031D00068070BD005F00700C0F108000544680738
:1031E00004D0BF2227A131A0FEF7EEFE002D39D07A
:1031F0007868854236D8224910310846046801E0D3
:10320000214604466068A84202D220680028F7D10F
:103210003868844226D00E680836206808606068E6
:10322000401B102811D904EB05085FEA487004D050
:10323000EC2214A11DA0FEF7C7FE6068401BC8F871
:10324000040065604046FFF745FF61687868401AF2
:103250007860BA68904200D2B860F8680143616053
:103260000020206000F0B8FE700705D04FF4967281
:1032700004A10EA0FEF7A8FE3046BDE8F0810000D4
:10328000F80000202E2E5C2E2E5C4672656552548E
:103290004F535C706F72745C4D656D4D616E675C11
:1032A000686561705F342E63000000004572726FC4
:1032B000723A25732C25640D0A00000024384FF063
:1032C0008073036221F00101C161044981614260A0
:1032D0006FF0020140F82019704700004D310008DE
:1032E00010B5194CB4F90200FDF7DCF89FED171B7F
:1032F00053EC112BFCF7C0FFFDF7F2F800B2608031
:103300004FF49661884201DD618015E0FDF7CAF84F
:103310009FED101B53EC112BFDF702F90CD2B4F901
:103320000200FDF7BFF89FED0D1B53EC112BFDF7CD
:103330000FF901D20020608003496088091D4870A0
:10334000000A887010BD00004600002066666666B0
:1033500066A66040989999999999404033333333E0
:10336000333346C070B504461D4D4FF4907028604D
:1033700000206860287268720820A8722078E872BD
:10338000217818A0FEF720FE60782873A078687373
:10339000E078A8732079E873217914A0FEF714FE71
:1033A00060792874A0796874E079A8742946114D71
:1033B0002846FDF736FE104C207004280BD02178EB
:1033C0002846FDF789FE0128F9D1BDE870404FF489
:1033D0007A70FFF7DABABDE8704008A0FEF7F4BDD6
:1033E0007001002025237820200000002523780D7F
:1033F0000A0000000068004046000020090A5468E6
:10340000657265206973206E6F206D61696C206242
:103410006F78210D0A0000003EB50446002002909E
:1034200001900090A078E17882096FF00A0515D02C
:1034300020F04000A0700B3800EBC00202EB00103F
:1034400005EB800008440290BDF80800404202905D
:10345000BDF908103FA0FEF7B7FD0DE00B3800EBFB
:10346000C00202EB001005EB800008440290BDF999
:1034700008103BA0FEF7A8FD2079810916D020F0A6
:10348000400020710B3800EBC002617902EB0010A4
:1034900005EB800008440190BDF804004042019013
:1034A000BDF9041031A0FEF78FFD0EE00B3800EBE4
:1034B000C002617902EB001005EB80000844019026
:1034C000BDF904102CA0FEF77FFDA079810916D06C
:1034D00020F04000A0710B3800EBC002E17902EB54
:1034E000001005EB800008440090BDF80000404249
:1034F0000090BDF9001023A0FEF766FD0EE00B382A
:1035000000EBC002E17902EB001005EB80000844FB
:103510000090BDF900101EA0FEF756FD1F4801687F
:1035200081F040010160BDF908100120FEF79EFA0C
:10353000BDF904100220FEF799FABDF9001003202E
:10354000FEF794FA03B06421BDE830400420FEF792
:103550008DBA0000B8BACAFD783A2025640D0A0079
:10356000D5FDCAFD783A2025640D0A00B8BACAFD17
:10357000793A2025640D0A00D5FDCAFD793A202547
:10358000640D0A00B8BACAFD7A3A2025640D0A0013
:10359000D5FDCAFD7A3A2025640D0A0014140240B4
:1035A0000748422101700021C1700279002A04D02D
:1035B00001710348001F4170704702220271F8E751
:1035C0004A00002010B50E4900230A1F0C785078DD
:1035D000412C05D043240C700B71801C507001E00D
:1035E000801E50705078C82802D9C820507003E05F
:1035F00010B95370422008705078C87010BD000098
:103600004A0000200169D0E901329A60D0E9012323
:103610005A604A68824201D182684A60002202618F
:103620000868401E0860704700F1080141604FF0D3
:10363000FF328260C160016100210160704700219A
:103640000161704730B50C68621C02D000F10802BD
:1036500002E0026904E01A4653681D68A542FAD9DF
:1036600053684B6099608A60516008610168491C29
:10367000016030BD42684A6093688B60936859600E
:10368000916008610168491C01607047502080F317
:103690001188BFF34F8FBFF36F8F09494868401CF3
:1036A000486001280AD10748006810F0FF0F05D0D4
:1036B00040F2B91204A10FA0FEF786BC70470000CB
:1036C000EC00002004ED00E02E2E5C2E2E5C4672F5
:1036D000656552544F535C706F72745C525644531C
:1036E0005C41524D5F434D34465C706F72742E6383
:1036F000000000004572726F723A25732C25640D2C
:103700000A00000010B5094C6068002805D14FF48C
:10371000E07207A111A0FEF757FC6068401E6060D0
:10372000002801D180F3118810BD0000EC000020BA
:103730002E2E5C2E2E5C4672656552544F535C7083
:103740006F72745C525644535C41524D5F434D342A
:10375000465C706F72742E63000000004572726FD9
:10376000723A25732C25640D0A00000070B50028FC
:103770002AD008380446154D6068E968084205D12A
:103780004FF4A07212A11CA0FEF71EFC206828B105
:1037900040F241120EA118A0FEF716FC6068E9681D
:1037A000084211D02268002A0ED18843606000F0E0
:1037B00089F960686968084468602046FFF78AFCF8
:1037C000BDE8704000F008BC70BD0000F8000020AB
:1037D0002E2E5C2E2E5C4672656552544F535C70E3
:1037E0006F72745C4D656D4D616E675C686561708C
:1037F0005F342E63000000004572726F723A2573C9
:103800002C25640D0A00000006484FF47A71006808
:10381000B0FBF1F14FF0E020491E41610721016149
:10382000704700000000002010B504460020002C66
:1038300010D00E48006B28B140F2CF420CA113A06B
:10384000FEF7C2FB00F03EF900212046FFF7C2FA66
:1038500000F0C2FB002807D110494FF080500860EB
:10386000BFF34F8FBFF36F8F10BD0000B00000207B
:103870002E2E5C2E2E5C4672656552544F535C733F
:1038800072635C7461736B732E6300004572726FB8
:10389000723A25732C25640D0A00000004ED00E047
:1038A0002DE9F04105460E460024002D05D140F2D9
:1038B00079421DA123A0FEF787FB2EB940F27A4280
:1038C00019A120A0FEF780FB224F386B28B140F2EF
:1038D0007B4215A11BA0FEF777FB00F0F3F8FA6816
:1038E0002B689919934205D98B4208D9914206D980
:1038F000012404E08B4201D8914200D901242960BF
:103900001CB1881A0021FFF765FA00F065FB00285A
:1039100007D111494FF080500860BFF34F8FBFF3BC
:103920006F8FBDE8F08100002E2E5C2E2E5C46725B
:10393000656552544F535C7372635C7461736B734F
:103940002E6300004572726F723A25732C25640D48
:103950000A000000B000002004ED00E070B504464D
:10396000FFF794FE234D04B92C68201DFFF74AFE93
:1039700058B9E06A204A00EB800152F8211021B9C1
:1039800001218140286988432861A06A18B104F1A7
:103990001800FFF737FE686A401C68622868844296
:1039A00007D1211D1548FFF765FE6868401C686057
:1039B00007E0A868401EA8602046FFF7B1FAFFF7AD
:1039C000B3FBFFF79FFE6869002812D02868844285
:1039D0000FD1286B28B140F2654209A10FA0FEF774
:1039E000F3FA12494FF080500860BFF34F8FBFF3D6
:1039F0006F8F70BDB000002098010020540400209B
:103A00002E2E5C2E2E5C4672656552544F535C73AD
:103A100072635C7461736B732E6300004572726F26
:103A2000723A25732C25640D0A00000004ED00E0B5
:103A30001CB515480024CDE900402346802213A17F
:103A4000144800F0B9F901280AD0401C1BD102B07B
:103A500040F28472BDE810400FA116A0FEF7B4BA80
:103A6000502080F31188BFF34F8FBFF36F8F06484C
:103A70004FF0FF312C38816201214161C460BDE803
:103A80001C4000F06BB81CBDDC00002049444C45D4
:103A900000000000812F00082E2E5C2E2E5C467246
:103AA000656552544F535C7372635C7461736B73DE
:103AB0002E6300004572726F723A25732C25640DD7
:103AC0000A0000000248016B491C016370470000B6
:103AD000B000002070B5144D286B002802D00120E2
:103AE000E86170BD0020E8612869B0FA80F0C0F19B
:103AF0001F000E4E00EB800456F8240028B940F653
:103B0000F6220BA111A0FEF75FFA06EB84004168D4
:103B10004968416000F10802914201D14968416061
:103B20004068C068286070BDB00000209801002087
:103B30002E2E5C2E2E5C4672656552544F535C737C
:103B400072635C7461736B732E6300004572726FF5
:103B5000723A25732C25640D0A0000001CB52F4C09
:103B600020682F49884205D140F259122DA138A072
:103B7000FEF72AFA20682A49491E884205D14FF4E7
:103B8000AD7228A132A0FEF71FFA354C20780190C3
:103B9000FF202070207800909DF800009DF8001014
:103BA00000F0F000884205D040F273121DA128A059
:103BB000FEF70AFA9DF800002A4A00F05000107043
:103BC0000720906006E09068401E90609DF800001D
:103BD000400000909DF800000006F4D4107A000226
:103BE00000F4E0609060019820700C48203001687B
:103BF00041F470010160016841F070410160FFF71C
:103C000003FE00205060FCF7E9FA1748016841F014
:103C100040410160FCF7D2FA00201CBD00ED00E03D
:103C200071C20F412E2E5C2E2E5C46726565525479
:103C30004F535C706F72745C525644535C41524DEA
:103C40005F434D34465C706F72742E630000000059
:103C50004572726F723A25732C25640D0A000000BC
:103C600000E400E0EC00002034EF00E010B550204C
:103C700080F31188BFF34F8FBFF36F8F00F0E0F830
:103C800018B104494FF080500860002080F311887B
:103C900010BD000004ED00E0F8B505460E461746DD
:103CA000002D05D14FF4C4720BA112A0FEF78CF9C0
:103CB00086B105FB06F04C30FFF77AFA04463CB1BA
:103CC00004F14C023B46314628460094FFF76CF95C
:103CD0002046F8BD0020EEE72E2E5C2E2E5C4672AC
:103CE000656552544F535C7372635C71756575659D
:103CF0002E6300004572726F723A25732C25640D95
:103D00000A00000070B504460D46002C05D140F2B3
:103D10001B121DA123A0FEF757F9FFF7B7FCD4E94A
:103D20000F20216802FB001161600021A16321685E
:103D3000A160E06B2268216C401E00FB0121E16064
:103D40004FF0FF3084F8440084F8450004F110007F
:103D50004DB1FFF769FC04F12400FFF765FCFFF7A4
:103D6000D1FC012070BD21690029F8D000F0E2F8F3
:103D70000028F4D00F494FF080500860BFF34F8FF8
:103D8000BFF36F8FEBE700002E2E5C2E2E5C467289
:103D9000656552544F535C7372635C7175657565EC
:103DA0002E6300004572726F723A25732C25640DE4
:103DB0000A00000004ED00E02DE9FF5F8146DDE927
:103DC0000E788A4616469B46B000FFF7F1F9054685
:103DD00028000AD04C20FFF7EBF904460CB125630C
:103DE00004E02846FFF7C2FC00E000248CB100206C
:103DF000CDE90240CDE900785B463246514648465F
:103E0000FFF7E2F82046FFF71DF8012004B0BDE8F7
:103E1000F09F4FF0FF30F9E705484169002903D0D2
:103E2000006B18B1002070470120704702207047D6
:103E3000B00000200148C06870470000B0000020BA
:103E40002DE9F04100262E4F386B002808D0B869C4
:103E5000401CB861F86900B101263046BDE8F08128
:103E6000FD686D1CFD608DB9786B006828B140F667
:103E7000D91224A12AA0FEF7A7F8786BB96B796351
:103E8000B863386A401C3862FFF74EF9B86ADFF849
:103E9000A08085420DD3786B006838B1786BC0681C
:103EA000C468606885420ED2B86202E04FF0FF300D
:103EB000B8623868C06A00EB800058F8200001281A
:103EC000C8D90126C6E7201DFFF79CFBA06A18B1E0
:103ED00004F11800FFF796FBE06A01213A6981407E
:103EE0001143396100EB800008EB8000211DFFF7D2
:103EF000C1FBE06A3968C96A8842CCD30126CAE7A7
:103F0000B00000202E2E5C2E2E5C46726565525449
:103F10004F535C7372635C7461736B732E63000048
:103F20004572726F723A25732C25640D0A000000E9
:103F3000980100202DE9F041C068C468002C05D12B
:103F400040F6613216A11DA0FEF73EF804F11800FC
:103F50000746FFF757FB1D4D2A6B012662B1394614
:103F60001B48FFF787FBE06A2968C96A884215D9B0
:103F70000120EE61BDE8F081201DFFF743FBE06A00
:103F80002A6906FA00F111432961124900EB800009
:103F900001EB8000211DFFF76DFBE4E70020E9E75E
:103FA0002E2E5C2E2E5C4672656552544F535C7308
:103FB00072635C7461736B732E6300004572726F81
:103FC000723A25732C25640D0A000000B000002011
:103FD00040040020980100202DE9F0410024002732
:103FE0002B4D286B002805D14FF4FD6229A130A08C
:103FF000FDF7EAFFFFF74AFB286B401E2863286B9A
:10400000F0BBA868E0B3DFF8B88001261DE0D8F85F
:104010000C00C46804F11800FFF7F4FA201DFFF744
:10402000F1FAE06A2A6906FA00F11143296125498B
:1040300000EB800001EB8000211DFFF71BFBE06A15
:104040002968C96A884200D3EE61D8F800000028C8
:10405000DDD10CB1FFF768F8AC6944B1FFF7F0FEB1
:1040600000B1EE61641E002CF8D10020A861E8695F
:1040700030B10127144938070860BFF34F8F00E0C3
:1040800001E0BFF36F8FFFF73DFB3846BDE8F081DD
:10409000B00000202E2E5C2E2E5C467265655254B8
:1040A0004F535C7372635C7461736B732E630000B7
:1040B0004572726F723A25732C25640D0A00000058
:1040C000400400209801002004ED00E000C1814080
:1040D00001C0804101C0804100C1814001C08041D8
:1040E00000C1814000C1814001C0804101C08041C8
:1040F00000C1814000C1814001C0804100C18140B8
:1041000001C0804101C0804100C1814001C08041A7
:1041100000C1814000C1814001C0804100C1814097
:1041200001C0804101C0804100C1814000C1814087
:1041300001C0804101C0804100C1814001C0804177
:1041400000C1814000C1814001C0804101C0804167
:1041500000C1814000C1814001C0804100C1814057
:1041600001C0804101C0804100C1814000C1814047
:1041700001C0804101C0804100C1814001C0804137
:1041800000C1814000C1814001C0804100C1814027
:1041900001C0804101C0804100C1814001C0804117
:1041A00000C1814000C1814001C0804101C0804107
:1041B00000C1814000C1814001C0804100C18140F7
:1041C00001C0804101C0804100C1814000C0C101E7
:1041D000C30302C2C60607C705C5C404CC0C0DCD77
:1041E0000FCFCE0E0ACACB0BC90908C8D81819D9E7
:1041F0001BDBDA1A1EDEDF1FDD1D1CDC14D4D51517
:10420000D71716D6D21213D311D1D010F03031F106
:1042100033F3F23236F6F737F53534F43CFCFD3D36
:10422000FF3F3EFEFA3A3BFB39F9F83828E8E92926
:10423000EB2B2AEAEE2E2FEF2DEDEC2CE42425E5D6
:1042400027E7E62622E2E323E12120E0A06061A146
:1042500063A3A26266A6A767A56564A46CACAD6DF6
:10426000AF6F6EAEAA6A6BAB69A9A86878B8B97966
:10427000BB7B7ABABE7E7FBF7DBDBC7CB47475B596
:1042800077B7B67672B2B373B17170B05090915186
:104290009353529296565797559594549C5C5D9DB6
:1042A0005F9F9E5E5A9A9B5B9959589888484989A6
:1042B0004B8B8A4A4E8E8F4F8D4D4C8C4484854556
:1042C000874746868242438341818040EC42000812
:1042D0000000002014010000E81F0008004400084E
:1042E000140100206C970000F81F0008007A030AF0
:1042F0000000000000000000010203040607080996
:10430000000000000102030401020304060708097B
:10431000000000000000000000000000000000009D
:1043200000000000000000000000000A00000A0079
:104330000000000000004200000002000000000039
:1043400000000000000000FFFEFDFC01080201006B
:1043500000000000FBFFFEFDFC0110090100010050
:104360000000FBFFFEFDFC01100101000000000049
:10437000FBFFFEFDFC01100201005A000000FBFFE4
:10438000FEFDFC011003010050000000FBFFFEFDDC
:10439000FC01100A01003C000000FB0000000000CE
:1043A000000000000000000000000000000000000D
:1043B00000000000000000000000000000000000FD
:1043C00000000000000000000000000000000000ED
:1043D000000000000000000000000000AAAAAAAA35
:1043E00000000000000000000000000000000000CD
:1043F00000000000000000000000000000000000BD
:040000050800018965
:00000001FF
